:020000040800F2
:100000000050002021020008290200082D020008EB
:10001000A1020008A5020008ED020008000000008F
:100020000000000000000000000000003503000890
:1000300039030008000000003D03000841030008E8
:100040005103000851030008510300085103000840
:100050005103000851030008510300085103000830
:100060005103000851030008510300085103000820
:100070005103000851030008510300085103000810
:100080005103000851030008510300085103000800
:1000900051030008510300085103000851030008F0
:1000A00051030008510300085103000851030008E0
:1000B00051030008510300085103000851030008D0
:1000C00051030008510300085103000851030008C0
:1000D00051030008510300085103000851030008B0
:1000E00051030008510300085103000800000000FC
:1000F0000000000000000000000000000000000000
:1001000000000000000000005FF808F100B583B0B7
:1001100000F0AEF9304B314A1360314A1360314B75
:10012000314A03E011681960043304322F498B42CD
:10013000F8D32A4B1A682E4B9A4204D1284B1A68DE
:100140002C4B9A4200D0FEE7234B2B4A13602B4ADC
:1001500013602B4B02E000221A600433294A9342B9
:10016000F9D3254B1B6813B9244B1B6803B1FEE779
:1001700000F08AF9694601A800F024F9224C234BCB
:100180001C1BA410002504E01F4B53F82530984792
:100190000135AC42F8DC1E4C1E4B1C1BA410002584
:1001A00004E01B4B53F8253098470135AC42F8DC8E
:1001B0000099019802F018FD0546174C174B1C1BBF
:1001C000A41004E0013C144B53F824309847002C51
:1001D000F8DC284600F0D2F8BABADECA00000020E7
:1001E00084000020000000207836000888000020ED
:1001F000785634123254769888000020200100206E
:1002000088000020240100207C0300087C030008F3
:100210007C0300087C0300087C0300087C030008C2
:1002200008B5FFF773FF00BF00BEFEE71EF0040F26
:100230000CBFEFF30880EFF309807146414A104785
:100240002DE9F04182B004468846134B5E6B9F6BEC
:100250009D6A1B6B13F0020F0DD00F4BDB6A002B56
:1002600009DA4BF6AB6100F08BF920B14FF0004298
:10027000094BDA620CE0094800F0ACF8CDF80080D8
:100280003B4632462946204600F002F900BEFEE712
:1002900002B0BDE8F08100BF00ED00E018360008B4
:1002A00000BEFEE71EF0040F0CBFEFF30880EFF373
:1002B00009807146244A10472DE9F04182B0044676
:1002C0008846084B5E6B9F6B9D6A074800F082F87A
:1002D000CDF800803B4632462946204600F0D8F84B
:1002E00000BEFEE700ED00E0283600081EF0040F17
:1002F0000CBFEFF30880EFF309807146134A1047F3
:100300002DE9F04182B004468846084B5E6B9F6B36
:100310009D6A074800F05EF8CDF800803B46324603
:100320002946204600F0B4F800BEFEE700ED00E0EC
:100330003436000800BEFEE700BEFEE700BEFEE762
:100340007047000041020008B902000801030008DC
:0403500000BEFEE706
:100354007836000800000020880000207836000865
:10036400000000000000000088000020240100209C
:08037400000000000000000081
:10037C00FEE700BF08B50D4B1B6813B90C4A0B4BBD
:10038C001A600A4B1A68C31C23F00303134409496F
:10039C008B4206D902F062FC0C2303604FF0FF3055
:1003AC0008BD02490B60104608BD00BF8C00002040
:1003BC0024010020004C002001230360014B0B6042
:1003CC00704700BF040000200FB400B583B004AB2D
:1003DC0053F8042B01938021064802F071FC00288D
:1003EC0003DD0146034800F039F803B05DF804EB77
:1003FC0004B07047940000202DE9F04385B004460A
:10040C000F46435613BB042528462146ABBE044673
:10041C001FE03546102E28BF1025002306E014F9E6
:10042C00011B04AA1A4402F8101C0133AB42F6D388
:10043C0004AA1344002203F8102CE9464FF00408D8
:10044C0040464946ABBE8046761B00E00E46002E69
:10045C00DFD1384605B0BDE8F08300BF08B5FFF723
:10046C00CBFF08BD08B500F0FBF8024B024A9A60BE
:10047C0008BD00BF00ED00E00000000808B500F06A
:10048C0017F908BDF8B504460D4617461E46264812
:10049C00FFF79AFF21682548FFF796FF616824480B
:1004AC00FFF792FFA1682348FFF78EFFE16822480F
:1004BC00FFF78AFF21692148FFF786FF6169204811
:1004CC00FFF782FFA1691F48FFF77EFFE1691E4815
:1004DC00FFF77AFF1D48FFF777FF29461C48FFF707
:1004EC0073FF1C4CE16A1C48FFF76EFF216B1B4825
:1004FC00FFF76AFFE16B1A48FFF766FF15F0800FF4
:10050C0003D039461748FFF75FFF15F4004F03D0AF
:10051C0031461548FFF758FF1448FFF755FF069969
:10052C001348FFF751FFF8BDFC3400080C350008E8
:10053C001C3500082C3500083C3500084C350008EB
:10054C005C3500086C3500087C3500088C350008DB
:10055C009835000800ED00E0A8350008B835000813
:10056C00C8350008D8350008E8350008F83500080B
:10057C000036000883691A888A4207D10268033A58
:10058C00012A05D80233836101207047002070478F
:10059C000020704782B00023019300932C4A13680B
:1005AC0043F4803313602A4B1B6803F4003300932D
:1005BC00019B01330193009B1BB9019BB3F5A06F09
:1005CC00F1D1234B1B6813F4003F02D0012300939D
:1005DC0001E000230093009B012B36D11D4B1A68C0
:1005EC0042F010021A601A6822F003021A601A68AC
:1005FC0042F002021A60A3F580535A685A605A6896
:10060C005A605A6842F480625A605A6822F47C122A
:10061C005A605A6842F4E8125A601A6842F08072C2
:10062C001A600B4B1B6813F0007FFAD0084B5A680A
:10063C0022F003025A605A6842F002025A60044BDC
:10064C005B6803F00C03082BF9D102B0704700BFB4
:10065C00001002400020024008B5FFF79BFF08BDC8
:10066C0008B5104B1A6842F001021A6059680E4A1C
:10067C000A405A601A6822F0847222F480321A609E
:10068C001A6822F480221A605A6822F4FE025A6018
:10069C004FF41F029A60FFF7DFFF4FF00062034B2D
:1006AC009A6008BD001002400000FFF800ED00E069
:1006BC001F4B5B6803F00C03042B06D0082B08D0EF
:1006CC003BBB1C4A1C4B1A6026E01A4A1A4B1A6098
:1006DC0022E0174A53685268C3F38343023312F47F
:1006EC00803F05D1154A02FB03F3134A136013E054
:1006FC000F4A526812F4003F05D0104A02FB03F374
:10070C000D4A136008E00B4A02FB03F30A4A13601C
:10071C0002E0084A084B1A60054B5B68C3F30313ED
:10072C00074AD35CDAB204490B68D3400B607047BC
:10073C000010024000127A001C00002000093D004D
:10074C000C00002010B50346322801D8002000E030
:10075C000120002B63D18D4C226822F00F02226005
:10076C004C1E0F2C5BD8DFE804F0080D12171C216F
:10077C00262B30353A3F5A44495242F00102834C01
:10078C0022604CE042F00202804C226047E042F0D2
:10079C0003027E4C226042E042F005027B4C226058
:1007AC003DE042F00602794C226038E042F007024C
:1007BC00764C226033E042F00902744C22602EE049
:1007CC0042F00A02714C226029E042F00B026F4C9D
:1007DC00226024E042F00D026C4C22601FE042F0DB
:1007EC000E026A4C22601AE042F00F02674C226043
:1007FC0015E042F00402654C226010E0634C42F0BC
:10080C0008022260227B6FF30002227307E05F4C28
:10081C0042F008022260227B42F001022273012B7B
:10082C0063D15A4C226822F0F00222604C1E0F2C2D
:10083C005BD8DFE804F0080D12171C21262B30358D
:10084C003A3F5A44495242F01002504C22604CE05C
:10085C0042F020024D4C226047E042F030024B4CFB
:10086C00226042E042F05002484C22603DE042F0EF
:10087C006002464C226038E042F07002434C226029
:10088C0033E042F09002414C22602EE042F0A00294
:10089C003E4C226029E042F0B0023C4C226024E045
:1008AC0042F0D002394C22601FE042F0E002374C9B
:1008BC0022601AE042F0F002344C226015E042F063
:1008CC004002324C226010E0304C42F08002226038
:1008DC00227B6FF34102227307E02C4C42F0800222
:1008EC002260227B42F002022273022B66D1274C3B
:1008FC00226822F4706222604C1E0F2C5ED8DFE856
:10090C0004F0080D12171C21262B30353A3F5D4799
:10091C004C5542F480721D4C22604FE042F4007240
:10092C001A4C22604AE042F44072184C226045E0B6
:10093C0042F4A062154C226040E042F4C062134CB9
:10094C0022603BE042F4E062104C226036E042F45C
:10095C0010620E4C226031E042F420620B4C22609B
:10096C002CE042F43062094C226027E042F45062E1
:10097C00064C226022E042F46062044C22601DE0CE
:10098C0042F47062014C226018E000BF0008014084
:10099C0042F480628B4C226010E08A4C42F400627C
:1009AC002260227B6FF38202227307E0854C42F4B3
:1009BC0000622260227B42F004022273032B63D17B
:1009CC00804C226822F0F00222604C1E0F2C5BD867
:1009DC00DFE804F0080D12171C21262B30353A3FA6
:1009EC005A44495242F48052764C22604CE042F414
:1009FC000052744C226047E042F44052714C226029
:100A0C0042E042F4A0426F4C22603DE042F4C0420E
:100A1C006C4C226038E042F4E0426A4C226033E0D5
:100A2C0042F41042674C22602EE042F42042654CA6
:100A3C00226029E042F43042624C226024E042F40D
:100A4C005042604C22601FE042F460425D4C2260D8
:100A5C001AE042F470425B4C226015E042F4804292
:100A6C00584C226010E0574C42F400422260227B2A
:100A7C006FF3C302227307E0524C42F4004222602F
:100A8C00227B42F008022273042B63D14D4C226866
:100A9C0022F0F00222604C1E0F2C5BD8DFE804F031
:100AAC00080D12171C21262B30353A3F5A44495257
:100ABC0042F48032434C22604CE042F40032414C10
:100ACC00226047E042F440323E4C226042E042F465
:100ADC00A0223C4C22603DE042F4C022394C226002
:100AEC0038E042F4E022374C226033E042F410222A
:100AFC00344C22602EE042F42022324C226029E059
:100B0C0042F430222F4C226024E042F450222D4C2F
:100B1C0022601FE042F460222A4C22601AE042F468
:100B2C007022284C226015E042F48022254C226071
:100B3C0010E0244C42F400222260227B6FF304125A
:100B4C00227307E01F4C42F400222260227B42F009
:100B5C0010022273052B66D11A4C226822F0F00287
:100B6C0022604C1E0F2C5ED8DFE804F0080D121723
:100B7C001C21262E33383D425D474C5542F48012E1
:100B8C00104C22604FE042F400120E4C22604AE0FE
:100B9C0042F440120B4C226045E042F4A002094C96
:100BAC00226040E042F4C002064C22603BE042F47A
:100BBC00E002044C226036E042F41002014C226048
:100BCC0031E000BF0008014042F420028B4C22604F
:100BDC0029E042F43002894C226024E042F45002B5
:100BEC00864C22601FE042F46002844C22601AE0C2
:100BFC0042F47002814C226015E042F480027F4C7A
:100C0C00226010E07D4C42F400022260227B6FF3E4
:100C1C004512227307E0794C42F400022260227BD9
:100C2C0042F020022273062B63D1744C226822F00E
:100C3C00F00222604C1E0F2C5BD8DFE804F0080D8C
:100C4C0012171C21262B30353A3F5A44495242F098
:100C5C0080726A4C22604CE042F00072674C226059
:100C6C0047E042F04072654C226042E042F0A062E4
:100C7C00624C22603DE042F0C062604C226038E081
:100C8C0042F0E0625D4C226033E042F010625B4C5B
:100C9C0022602EE042F02062584C226029E042F0A3
:100CAC003062564C226024E042F05062534C226079
:100CBC001FE042F06062514C22601AE042F0706218
:100CCC004E4C226015E042F080624C4C226010E0E9
:100CDC004A4C42F000622260227B6FF38612227330
:100CEC0007E0464C42F000622260227B42F0400258
:100CFC002273072B63D1414C226822F0F002226050
:100D0C004C1E0F2C5BD8DFE804F0080D12171C21C9
:100D1C00262B30353A3F5A44495242F08052374CD8
:100D2C0022604CE042F00052344C226047E042F02A
:100D3C004052324C226042E042F0A0422F4C2260E2
:100D4C003DE042F0C0422D4C226038E042F0E042DF
:100D5C002A4C226033E042F01042284C22602EE0F4
:100D6C0042F02042254C226029E042F03042234CD4
:100D7C00226024E042F05042204C22601FE042F0FE
:100D8C0060421E4C22601AE042F070421B4C226002
:100D9C0015E042F08042194C226010E0174C42F0F2
:100DAC0000422260227B6FF3C712227307E0134CC0
:100DBC0042F000422260227B42F080022273082B18
:100DCC0066D10E4C626822F00F0262604C1E0F2C32
:100DDC005ED8DFE804F0080D151A1F24292E3338CD
:100DEC003D425D474C5542F00102044C62604FE0BD
:100DFC0042F00202014C62604AE000BF0008014070
:100E0C0042F00302844C626042E042F00502824CE4
:100E1C0062603DE042F006027F4C626038E042F0D6
:100E2C0007027D4C626033E042F009027A4C62604A
:100E3C002EE042F00A02784C626029E042F00B028C
:100E4C00754C626024E042F00D02734C62601FE04E
:100E5C0042F00E02704C62601AE042F00F026E4CCF
:100E6C00626015E042F004026B4C626010E06A4C68
:100E7C0042F008026260627B6FF30002627307E06B
:100E8C00654C42F008026260627B42F001026273C0
:100E9C00092B63D1604C626822F0F00262604C1E38
:100EAC000F2C5BD8DFE804F0080D12171C21262B41
:100EBC0030353A3F5A44495242F01002564C626067
:100ECC004CE042F02002544C626047E042F03002A9
:100EDC00514C626042E042F050024F4C62603DE087
:100EEC0042F060024C4C626038E042F070024A4CB6
:100EFC00626033E042F09002474C62602EE042F0B8
:100F0C00A002454C626029E042F0B002424C6260A3
:100F1C0024E042F0D002404C62601FE042F0E0025C
:100F2C003D4C62601AE042F0F0023B4C626015E00E
:100F3C0042F04002384C626010E0374C42F08002C4
:100F4C006260627B6FF34102627307E0324C42F0E5
:100F5C0080026260627B42F0020262730A2B65D1EE
:100F6C002D4C626822F4706262604C1E0F2C5DD8AE
:100F7C00DFE804F0080D12171C21262B30353A3F00
:100F8C005C44495442F48072234C62604EE042F45B
:100F9C000072214C626049E042F440721E4C626067
:100FAC0044E042F4A0621C4C62603FE042F4C06238
:100FBC00194C62603AE042F4E062174C626035E032
:100FCC0042F41062144C626030E042F42062124C25
:100FDC0062602BE042F430620F4C626026E042F417
:100FEC0050620D4C626021E042F460620A4C626017
:100FFC001CE042F47062084C626017E042F48062BC
:10100C00054C626012E0044C42F400626260627B48
:10101C006FF38202627309E0000801408C4C42F4C9
:10102C0000626260627B42F0040262730B2B63D13C
:10103C00874C626822F0F00262604C1E0F2C5BD869
:10104C00DFE804F0080D12171C21262B30353A3F2F
:10105C005A44495242F480527D4C62604CE042F456
:10106C0000527B4C626047E042F44052784C626024
:10107C0042E042F4A042764C62603DE042F4C04251
:10108C00734C626038E042F4E042714C626033E0D1
:10109C0042F410426E4C62602EE042F420426C4CE2
:1010AC00626029E042F43042694C626024E042F410
:1010BC005042674C62601FE042F46042644C6260D4
:1010CC001AE042F47042624C626015E042F48042D5
:1010DC005F4C626010E05E4C42F400426260627BE6
:1010EC006FF3C302627307E0594C42F40042626032
:1010FC00627B42F0080262730C2B63D1544C626821
:10110C0022F0F00262604C1E0F2C5BD8DFE804F07A
:10111C00080D12171C21262B30353A3F5A444952E0
:10112C0042F480324A4C62604CE042F40032484C4B
:10113C00626047E042F44032454C626042E042F467
:10114C00A022434C62603DE042F4C022404C6260FD
:10115C0038E042F4E0223E4C626033E042F410226C
:10116C003B4C62602EE042F42022394C626029E054
:10117C0042F43022364C626024E042F45022344C6B
:10118C0062601FE042F46022314C62601AE042F46B
:10119C0070222F4C626015E042F480222C4C62606D
:1011AC0010E02B4C42F400226260627B6FF304125D
:1011BC00627307E0264C42F400226260627B42F0CC
:1011CC00100262730D2B65D1214C626822F0F00283
:1011DC0062604C1E0F2C5DD8DFE804F0080D12176E
:1011EC001C21262B30353C415C464B5442F480127A
:1011FC00174C62604EE042F40012154C626049E0FC
:10120C0042F44012124C626044E042F4A002104CD2
:10121C0062603FE042F4C0020D4C62603AE042F47E
:10122C00E0020B4C626035E042F41002084C626044
:10123C0030E042F42002064C62602BE042F43002B3
:10124C00034C626026E042F45002014C626021E0E3
:10125C000008014042F460028B4C62601AE042F4D8
:10126C007002894C626015E042F48002864C626028
:10127C0010E0854C42F400026260627B6FF3451211
:10128C00627307E0804C42F400026260627B42F0C1
:10129C00200262730E2B63D17B4C626822F0F00249
:1012AC0062604C1E0F2C5BD8DFE804F0080D12179F
:1012BC001C21262B30353A3F5A44495242F0807259
:1012CC00714C62604CE042F000726F4C626047E01F
:1012DC0042F040726C4C626042E042F0A0626A4C98
:1012EC0062603DE042F0C062674C626038E042F000
:1012FC00E062654C626033E042F01062624C626006
:10130C002EE042F02062604C626029E042F03062D4
:10131C005D4C626024E042F050625B4C62601FE006
:10132C0042F06062584C62601AE042F07062564CB7
:10133C00626015E042F08062534C626010E0524CE7
:10134C0042F000626260627B6FF38612627307E0A8
:10135C004D4C42F000626260627B42F0400262736C
:10136C000F2B5FD1484C626822F0F00262604C1E79
:10137C000F2C57D8DFE804F0080D12171C21262B70
:10138C0030353A3F5644495242F080523E4C6260EE
:10139C0048E042F000523C4C626043E042F0405264
:1013AC00394C62603EE042F0A042374C626039E05A
:1013BC0042F0C042344C626034E042F0E042324CC5
:1013CC0062602FE042F010422F4C62602AE042F043
:1013DC0020422D4C626025E042F030422A4C626083
:1013EC0020E042F05042284C62601BE042F0604228
:1013FC00254C626016E042F07042234C626011E0B2
:10140C0042F08042204C62600CE01F4C42F00042E3
:10141C006260627B6FF3C712627303E042F00042BA
:10142C00194C6260102B67D1184C226822F00F0205
:10143C0022604C1E0F2C5FD8DFE804F0080D121749
:10144C001C212A2F34393E435E484D5642F001028E
:10145C000E4C226050E042F002020C4C22604BE039
:10146C0042F00302094C226046E042F00502074CB0
:10147C00226041E042F00602044C22603CE042F063
:10148C000702024C226037E000080140000C0140CA
:10149C0042F009028B4C22602EE042F00A02894C89
:1014AC00226029E042F00B02864C226024E042F0DC
:1014BC000D02844C22601FE042F00E02814C22602F
:1014CC001AE042F00F027F4C226015E042F0040259
:1014DC007C4C226010E07B4C42F008022260227BA4
:1014EC006FF30002227307E0764C42F00802226090
:1014FC00227B42F001022273112B63D1714C2268C2
:10150C0022F0F00222604C1E0F2C5BD8DFE804F0B6
:10151C00080D12171C21262B30353A3F5A444952DC
:10152C0042F01002674C22604CE042F02002654C05
:10153C00226047E042F03002624C226042E042F00E
:10154C005002604C22603DE042F060025D4C226033
:10155C0038E042F070025B4C226033E042F09002C3
:10156C00584C22602EE042F0A002564C226029E03A
:10157C0042F0B002534C226024E042F0D002514CB5
:10158C0022601FE042F0E0024E4C22601AE042F072
:10159C00F0024C4C226015E042F04002494C2260B3
:1015AC0010E0484C42F080022260227B6FF3410233
:1015BC00227307E0434C42F080022260227B42F00F
:1015CC0002022273122B63D13E4C226822F4706209
:1015DC0022604C1E0F2C5BD8DFE804F0080D1217AC
:1015EC001C21262B30353A3F5A44495242F4807222
:1015FC00344C22604CE042F40072324C226047E0E2
:10160C0042F440722F4C226042E042F4A0622D4C16
:10161C0022603DE042F4C0622A4C226038E042F481
:10162C00E062284C226033E042F41062254C2260C8
:10163C002EE042F42062234C226029E042F4306216
:10164C00204C226024E042F450621E4C22601FE0C9
:10165C0042F460621B4C22601AE042F47062194C36
:10166C00226015E042F48062164C226010E0154CAA
:10167C0042F400622260227B6FF38202227307E045
:10168C00104C42F400622260227B42F0040222736E
:10169C00132B66D10B4C226822F0F00222604C1EF8
:1016AC000F2C5ED8DFE804F00810151A1F24292E21
:1016BC0033383D425D474C5542F48052014C226018
:1016CC004FE000BF000C014042F40052874C2260F6
:1016DC0047E042F44052854C226042E042F4A04282
:1016EC00824C22603DE042F4C042804C226038E0E3
:1016FC0042F4E0427D4C226033E042F410427B4CD9
:10170C0022602EE042F42042784C226029E042F420
:10171C003042764C226024E042F45042734C2260FA
:10172C001FE042F46042714C22601AE042F47042B5
:10173C006E4C226015E042F480426C4C226010E04A
:10174C006A4C42F400422260227B6FF3C302227384
:10175C0007E0664C42F400422260227B42F0080211
:10176C002273142B63D1614C226822F0F0022260A8
:10177C004C1E0F2C5BD8DFE804F0080D12171C214F
:10178C00262B30353A3F5A44495242F48032574C5A
:10179C0022604CE042F40032544C226047E042F4A8
:1017AC004032524C226042E042F4A0224F4C226064
:1017BC003DE042F4C0224D4C226038E042F4E0227D
:1017CC004A4C226033E042F41022484C22602EE056
:1017DC0042F42022454C226029E042F43022434C52
:1017EC00226024E042F45022404C22601FE042F47C
:1017FC0060223E4C22601AE042F470223B4C226084
:10180C0015E042F48022394C226010E0374C42F44F
:10181C0000222260227B6FF30412227307E0334C08
:10182C0042F400222260227B42F010022273152B1C
:10183C0066D12E4C226822F0F00222604C1E0F2C36
:10184C005ED8DFE804F0080D12171C21262B30356A
:10185C003A3F5D44495542F48012244C22604FE0DB
:10186C0042F40012214C22604AE042F440121F4C18
:10187C00226045E042F4A0021C4C226040E042F49D
:10188C00C0021A4C22603BE042F4E002174C22608A
:10189C0036E042F41002154C226031E042F4200292
:1018AC00124C22602CE042F43002104C226027E0F3
:1018BC0042F450020D4C226022E042F460020B4CC8
:1018CC0022601DE042F47002084C226018E042F4E1
:1018DC008002064C226013E0044C42F400022260A9
:1018EC00227B6FF3451222730AE000BF000C01400B
:1018FC008C4C42F400022260227B42F020022273C4
:10190C00162B63D1874C226822F0F00222604C1E09
:10191C000F2C5BD8DFE804F0080D12171C21262BC6
:10192C0030353A3F5A44495242F080727D4C226025
:10193C004CE042F000727B4C226047E042F0407277
:10194C00784C226042E042F0A062764C22603DE08E
:10195C0042F0C062734C226038E042F0E062714C9D
:10196C00226033E042F010626E4C22602EE042F0B6
:10197C0020626C4C226029E042F03062694C22609B
:10198C0024E042F05062674C22601FE042F060623B
:10199C00644C22601AE042F07062624C226015E0E6
:1019AC0042F080625F4C226010E05E4C42F00062BC
:1019BC002260227B6FF38612227307E0594C42F0AF
:1019CC0000622260227B42F040022273172B63D10B
:1019DC00544C226822F0F00222604C1E0F2C5BD873
:1019EC00DFE804F0080D12171C21262B30353A3F86
:1019FC005A44495242F080524A4C22604CE042F028
:101A0C000052484C226047E042F04052454C226064
:101A1C0042E042F0A042434C22603DE042F0C04222
:101A2C00404C226038E042F0E0423E4C226033E011
:101A3C0042F010423B4C22602EE042F02042394CE6
:101A4C00226029E042F03042364C226024E042F021
:101A5C005042344C22601FE042F06042314C226014
:101A6C001AE042F070422F4C226015E042F08042A6
:101A7C002C4C226010E02B4C42F000422260227B66
:101A8C006FF3C712227307E0264C42F0004222602B
:101A9C00227B42F080022273182B65D1214C6268A4
:101AAC0022F00F0262604C1E0F2C5DD8DFE804F0B0
:101ABC00080D12171C21262B30353C415C464B542B
:101ACC0042F00102174C62604EE042F00202154CEB
:101ADC00626049E042F00302124C626044E042F062
:101AEC000502104C62603FE042F006020D4C626051
:101AFC003AE042F007020B4C626035E042F009021A
:101B0C00084C626030E042F00A02064C62602BE046
:101B1C0042F00B02034C626026E042F00D02014CD5
:101B2C00626021E0000C014042F00E028B4C6260BE
:101B3C001AE042F00F02894C626015E042F0040298
:101B4C00864C626010E0854C42F008026260627B59
:101B5C006FF30002627307E0804C42F0080262608F
:101B6C00627B42F001026273192B63D17B4C626879
:101B7C0022F0F00262604C1E0F2C5BD8DFE804F000
:101B8C00080D12171C21262B30353A3F5A44495266
:101B9C0042F01002714C62604CE042F020026F4C3B
:101BAC00626047E042F030026C4C626042E042F00E
:101BBC0050026A4C62603DE042F06002674C626029
:101BCC0038E042F07002654C626033E042F0900203
:101BDC00624C62602EE042F0A002604C626029E030
:101BEC0042F0B0025D4C626024E042F0D0025B4CEB
:101BFC0062601FE042F0E002584C62601AE042F072
:101C0C00F002564C626015E042F04002534C6260A8
:101C1C0010E0524C42F080026260627B6FF3410232
:101C2C00627307E04D4C42F080026260627B42F0CE
:101C3C00020262731A2B63D1484C626822F4706200
:101C4C0062604C1E0F2C5BD8DFE804F0080D1217F5
:101C5C001C21262B30353A3F5A44495242F48072AB
:101C6C003E4C62604CE042F400723C4C626047E0D7
:101C7C0042F44072394C626042E042F4A062374C4C
:101C8C0062603DE042F4C062344C626038E042F481
:101C9C00E062324C626033E042F410622F4C6260BE
:101CAC002EE042F420622D4C626029E042F4306256
:101CBC002A4C626024E042F45062284C62601FE0BF
:101CCC0042F46062254C62601AE042F47062234C6C
:101CDC00626015E042F48062204C626010E01F4CA0
:101CEC0042F400626260627B6FF38202627307E00F
:101CFC001A4C42F400626260627B42F0040262732E
:101D0C001B2B66D1154C626822F0F00262604C1EEF
:101D1C000F2C5ED8DFE804F0080D12171C24292EB6
:101D2C0033383D425D474C5542F480520B4C626057
:101D3C004FE042F40052094C62604AE042F44052D7
:101D4C00064C626045E042F4A042044C626040E004
:101D5C0042F4C042014C62603BE000BF000C014009
:101D6C0042F4E0428B4C626033E042F41042894C06
:101D7C0062602EE042F42042864C626029E042F41C
:101D8C003042844C626024E042F45042814C6260E8
:101D9C001FE042F460427F4C62601AE042F47042F1
:101DAC007C4C626015E042F480427A4C626010E038
:101DBC00784C42F400426260627B6FF3C302627340
:101DCC0007E0744C42F400426260627B42F008020D
:101DDC0062731C2B63D16F4C626822F0F00262605C
:101DEC004C1E0F2C5BD8DFE804F0080D12171C21D9
:101DFC00262B30353A3F5A44495242F48032654CD6
:101E0C0062604CE042F40032624C626047E042F4A3
:101E1C004032604C626042E042F4A0225D4C626051
:101E2C003DE042F4C0225B4C626038E042F4E022B8
:101E3C00584C626033E042F41022564C62602EE043
:101E4C0042F42022534C626029E042F43022514C7F
:101E5C00626024E042F450224E4C62601FE042F477
:101E6C0060224C4C62601AE042F47022494C626071
:101E7C0015E042F48022474C626010E0454C42F47D
:101E8C0000226260627B6FF30412627307E0414CC4
:101E9C0042F400226260627B42F0100262731D2BDE
:101EAC0063D13C4C626822F0F00262604C1E0F2C35
:101EBC005BD8DFE804F0080D12171C21262B3035F7
:101ECC003A3F5A44495242F48012324C62604CE020
:101EDC0042F400122F4C626047E042F440122D4C49
:101EEC00626042E042F4A0022A4C62603DE042F49F
:101EFC00C002284C626038E042F4E002254C62607B
:101F0C0033E042F41002234C62602EE042F42002D3
:101F1C00204C626029E042F430021E4C626024E0E6
:101F2C0042F450021B4C62601FE042F46002194CF8
:101F3C0062601AE042F47002164C626015E042F4E2
:101F4C008002144C626010E0124C42F40002626099
:101F5C00627B6FF34512627307E00E4C42F4000291
:101F6C006260627B42F0200262731E2B66D1094CC8
:101F7C00626822F0F00262604C1E0F2C5ED8DFE823
:101F8C0004F00B10151A1F24292E33383D425D47DF
:101F9C004C5500BF000C014042F08072894C6260CD
:101FAC004CE042F00072874C626047E042F04072B5
:101FBC00844C626042E042F0A062824C62603DE080
:101FCC0042F0C0627F4C626038E042F0E0627D4CCF
:101FDC00626033E042F010627A4C62602EE042F0B4
:101FEC002062784C626029E042F03062754C62608D
:101FFC0024E042F05062734C62601FE042F0606279
:10200C00704C62601AE042F070626E4C626015E0D7
:10201C0042F080626B4C626010E06A4C42F00062ED
:10202C006260627B6FF38612627307E0654C42F06C
:10203C0000626260627B42F0400262731F2B63D1CC
:10204C00604C626822F0F00262604C1E0F2C5BD870
:10205C00DFE804F0080D12171C21262B30353A3F0F
:10206C005A44495242F08052564C62604CE042F065
:10207C000052544C626047E042F04052514C626056
:10208C0042E042F0A0424F4C62603DE042F0C04260
:10209C004C4C626038E042F0E0424A4C626033E003
:1020AC0042F01042474C62602EE042F02042454C18
:1020BC00626029E042F03042424C626024E042F01F
:1020CC005042404C62601FE042F060423D4C626006
:1020DC001AE042F070423B4C626015E042F08042E4
:1020EC00384C626010E0374C42F000426260627B18
:1020FC006FF3C712627307E0324C42F00042626029
:10210C00627B42F0800262732D2B67D12E4C626889
:10211C0022F4700262604C1E0F2C5FD8DFE804F0D2
:10212C00080D12171C21262B30353A3F5E444956B8
:10213C0042F48012244C626050E042F40012224CB3
:10214C0062604BE042F440121F4C626046E042F485
:10215C00A0021D4C626041E042F4C0021A4C626065
:10216C003CE042F4E002184C626037E042F41002AA
:10217C00154C626032E042F42002134C62602DE098
:10218C0042F43002104C626028E042F450020E4CD3
:10219C00626023E042F460020B4C62601EE042F489
:1021AC007002094C626019E042F48002064C6260D5
:1021BC0014E0054C42F400026260627B6FF345123E
:1021CC0062730BE0000C0140001001408C4C42F497
:1021DC0000026260627B42F0200262732E2B63D19C
:1021EC00874C626822F0706262604C1E0F2C5BD8C8
:1021FC00DFE804F0080D12171C21262B30353A3F6E
:10220C005A44495242F080727D4C62604CE042F07C
:10221C0000727B4C626047E042F04072784C626026
:10222C0042E042F0A062764C62603DE042F0C06257
:10223C00734C626038E042F0E062714C626033E0F3
:10224C0042F010626E4C62602EE042F020626C4CE8
:10225C00626029E042F03062694C626024E042F036
:10226C005062674C62601FE042F06062644C6260D6
:10227C001AE042F07062624C626015E042F08062DB
:10228C005F4C626010E05E4C42F000626260627B08
:10229C006FF38612627307E0594C42F00062626081
:1022AC00627B42F0400262732F2B63D1544C626804
:1022BC0022F0704262604C1E0F2C5BD8DFE804F0F9
:1022CC00080D12171C21262B30353A3F5A4449521F
:1022DC0042F080524A4C62604CE042F00052484C52
:1022EC00626047E042F04052454C626042E042F08E
:1022FC00A042434C62603DE042F0C042404C626000
:10230C0038E042F0E0423E4C626033E042F0104272
:10231C003B4C62602EE042F02042394C626029E076
:10232C0042F03042364C626024E042F05042344C71
:10233C0062601FE042F06042314C62601AE042F091
:10234C0070422F4C626015E042F080422C4C62606F
:10235C0010E02B4C42F000426260627B6FF3C712BC
:10236C00627307E0264C42F000426260627B42F0EE
:10237C0080026273302B67D1224C226822F00F024C
:10238C0022604C1E0F2C5FD8DFE804F0080D1217EA
:10239C001C21262B30353E435E484D5642F001023F
:1023AC00184C226050E042F00202164C22604BE0C6
:1023BC0042F00302134C226046E042F00502114C3D
:1023CC00226041E042F006020E4C22603CE042F0FA
:1023DC0007020C4C226037E042F00902094C2260E3
:1023EC0032E042F00A02074C22602DE042F00B0270
:1023FC00044C226028E042F00D02024C226023E0E3
:10240C00001001400014014042F00E02424C2260C8
:10241C001AE042F00F02404C226015E042F0040238
:10242C003D4C226010E03C4C42F008022260227BC2
:10243C006FF30002227307E0374C42F0080222606F
:10244C00227B42F001022273312B63D1324A136892
:10245C0023F0F003136001390F295BD8DFE801F09A
:10246C00080D12171C21262B30353A3F5A4449527D
:10247C0043F01003284A136010BD43F02003264A92
:10248C00136010BD43F03003234A136010BD43F0BA
:10249C005003214A136010BD43F060031E4A1360C1
:1024AC0010BD43F070031C4A136010BD43F0900341
:1024BC00194A136010BD43F0A003174A136010BDF6
:1024CC0043F0B003144A136010BD43F0D003124A1A
:1024DC00136010BD43F0E0030F4A136010BD43F0CE
:1024EC00F0030D4A136010BD43F040030A4A136019
:1024FC0010BD094A43F080031360137B6FF3410353
:10250C00137310BD044A43F080031360137B43F034
:10251C000203137310BD00BF00140140030900F047
:10252C000F00032B27D8DFE803F0020B141D134B0D
:10253C009B6823FA00F000F001000870002070473F
:10254C000F4B9B6823FA00F000F00100087000208C
:10255C0070470C4B9B6823FA00F000F001000870E8
:10256C0000207047084B9B6823FA00F000F0010034
:10257C000870002070470120704700BF0008014020
:10258C00000C01400010014000140140030900F050
:10259C000F02322801D8002000E0012029BB032BB8
:1025AC004BD8DFE803F0020A121A012303FA02F2F5
:1025BC00244B59690A435A617047012303FA02F20A
:1025CC00214B59690A435A617047012303FA02F2FD
:1025DC001E4B59690A435A617047012303FA02F2F0
:1025EC001B4B59690A435A617047012928D1032BA7
:1025FC0025D8DFE803F0020A121A012303FA02F2CB
:10260C00104B19690A431A617047012303FA02F24D
:10261C000D4B19690A431A617047012303FA02F240
:10262C000A4B19690A431A617047012303FA02F233
:10263C00074B19690A431A61704701207047012042
:10264C00704700BF00080140000C01400010014021
:10265C0000140140012940F0618101382F2800F25B
:10266C00B582DFE810F0300036003C004200480034
:10267C004E0054005A00600066006C007200780036
:10268C007E0084008A00900096009C00A200A800A6
:10269C00AE00B400BA00C000C600CC00D200D80016
:1026AC00DE00E400EA00F000F600FC000201080184
:1026BC00130119011F0125012B01310137013D01C6
:1026CC00430149014F01924A136843F4001313600C
:1026DC0070478F4A136843F48013136070478C4A19
:1026EC00136843F4002313607047894A136843F45A
:1026FC00004313607047864A136843F480431360A9
:10270C007047834A136843F4005313607047804A40
:10271C00136843F48053136070477D4A136843F485
:10272C000063136070477A4A136843F48063136044
:10273C007047774A136843F4007313607047744A08
:10274C00136843F4807313607047714A136843F045
:10275C008003136070476E4A136843F040031360A4
:10276C0070476B4A136843F0200313607047684A44
:10277C00136843F0100313607047654A136843F005
:10278C00080313607047624A136843F00403136034
:10279C0070475F4A136843F00103136070475D4A4A
:1027AC00136843F00053136070475A4A136843F0A0
:1027BC00805313607047574A136843F000631360EB
:1027CC007047544A136843F0007313607047514AC2
:1027DC00136843F40003136070474E4A136843F4C4
:1027EC008003136070474B4A136843F40013136063
:1027FC007047484A136843F4801313607047454A86
:10280C00136843F4002313607047424A136843F47F
:10281C008023136070473F4A136843F400331360FE
:10282C0070473C4A136843F4004313607047394ABD
:10283C00136843F4804313607047364A136843F4BB
:10284C00006313607047334A136843F4807313605A
:10285C007047304A136843F08003136070472D4A69
:10286C00136843F04003136070472A4A136843F01F
:10287C00200313607047264A136823F40013136077
:10288C000432136843F0100313607047214A136835
:10289C0043F00803136070471E4A136843F00403A7
:1028AC00136070471B4A136843F0020313607047B0
:1028BC00184A136843F0010313607047164A1368F3
:1028CC0043F4806313607047134A136843F48073B6
:1028DC0013607047104A136843F04003136070474D
:1028EC000D4A136843F01003136070470A4A1368CB
:1028FC0043F0040313607047074A136843F0020364
:10290C0013607047044A136843F001031360704767
:10291C00181002401C10024014100240002940F014
:10292C00558101382F2800F25181DFE810F030007A
:10293C0036003C00420048004E0054005A00600033
:10294C0066006C00720078007E0084008A009000A3
:10295C0096009C00A200A800AE00B400BA00C00013
:10296C00C600CC00D200D800DE00E400EA00F00083
:10297C00F600FC00020108010E0114011A012001ED
:10298C0026012C01320138013E0144014A01904AD2
:10299C00136823F40013136070478D4A136823F4F3
:1029AC008013136070478A4A136823F40023136062
:1029BC007047874A136823F4004313607047844AB6
:1029CC00136823F4804313607047814A136823F41F
:1029DC000053136070477E4A136823F480531360CE
:1029EC0070477B4A136823F4006313607047784A7E
:1029FC00136823F4806313607047754A136823F4DB
:102A0C00007313607047724A136823F48073136069
:102A1C0070476F4A136823F08003136070476C4A49
:102A2C00136823F0400313607047694A136823F05E
:102A3C00200313607047664A136823F01003136079
:102A4C007047634A136823F0080313607047604AA9
:102A5C00136823F00403136070475D4A136823F076
:102A6C000103136070475B4A136823F00053136033
:102A7C007047584A136823F0805313607047554AC7
:102A8C00136823F0006313607047524A136823F0F5
:102A9C000073136070474F4A136823F400031360EC
:102AAC0070474C4A136823F4800313607047494AFB
:102ABC00136823F4001313607047464A136823F419
:102ACC00801313607047434A136823F40023136088
:102ADC007047404A136823F48023136070473D4AC3
:102AEC00136823F40033136070473A4A136823F4D5
:102AFC00004313607047374A136823F48043136014
:102B0C007047344A136823F4006313607047314AEA
:102B1C00136823F48073136070472E4A136823F0F4
:102B2C008003136070472B4A136823F04003136033
:102B3C007047284A136823F0200313607047254A16
:102B4C00136823F0100313607047224A136823F0B4
:102B5C000803136070471F4A136823F004031360C3
:102B6C0070471C4A136823F0020313607047194A1C
:102B7C00136823F0010313607047174A136823F49A
:102B8C00806313607047144A136823F480731360D6
:102B9C007047114A136823F04003136070470E4AC4
:102BAC00136823F01003136070470B4A136823F06B
:102BBC00040313607047084A136823F00203136080
:102BCC007047054A136823F001031360704700BF78
:102BDC00181002401C1002401410024030B583B093
:102BEC00002402AD05F8014D01211120FFF732FD43
:102BFC0001211020FFF72EFD01210F20FFF72AFDE8
:102C0C0001210E20FFF726FD01212046FDF79AFD3C
:102C1C0001210846FDF796FD10210220FDF792FDDB
:102C2C0021462046FFF7B2FC29460220FFF776FC2E
:102C3C000DF107010220FFF771FC9DF80730012B05
:102C4C0004D101210846FFF7A1FCF1E7002BEFD1DD
:102C5C0000210120FFF79AFCEAE700BF014B18683E
:102C6C00704700BF8000002030B5141E05469BB095
:102C7C00184604DA8B232B604FF0FF301DE04FF425
:102C8C000273ADF80C300CBF234604F1FF330293F2
:102C9C0005934FF6FF7300910491ADF80E30024688
:102CAC001E9B6946284600F073F8431CBCBF8B235F
:102CBC002B6014B1009B00221A701BB030BD0000B9
:102CCC0007B5009313460A46014603480068FFF710
:102CDC00CBFF03B05DF804FB800000202DE9F0472A
:102CEC008E6882469E420C46914698463ED88A890A
:102CFC0012F4906F3AD02568096902236F1A65693E
:102D0C0005EB450595FBF3F57B1C43449D4238BF11
:102D1C001D4653050FD5294600F04AFB064698B1CF
:102D2C003A46216900F0D2FAA38923F4906343F068
:102D3C008003A38113E02A4600F098FB064670B985
:102D4C002169504600F0E8FA0C23CAF80030A38938
:102D5C004FF0FF3043F04003A381BDE8F0872661BC
:102D6C003E44266046466561ED1BA560464528BF7E
:102D7C00464649463246206800F0B3FAA368002064
:102D8C009B1BA36023681E442660BDE8F0870000EF
:102D9C002DE9F04F9DB003938B8980461C060D46A0
:102DAC0016460DD50B695BB9402100F001FB28607C
:102DBC00286118B90C23C8F80030CDE040236B61B2
:102DCC000023099320238DF82930DFF89CB13023A0
:102DDC008DF82A3037463C4614F8013B1BB9B7EB4B
:102DEC00060910D003E0252BF9D02746F3E74B4614
:102DFC00324629464046FFF771FF013000F0A780AC
:102E0C00099B4B4409933B78002B00F0A0800023D6
:102E1C004FF0FF3204930793059206938DF85330CD
:102E2C001A930126052221784E4800F041FA671CBE
:102E3C00049B38B14B4A3C46801A06FA00F0184302
:102E4C000490EFE7D90644BF20228DF853201A07CF
:102E5C0044BF2B228DF8532022782A2A03D0079ABC
:102E6C0000210A200BE0039A111D12680391002A1D
:102E7C0010DA524243F00200079204900BE027460E
:102E8C003B780134303B092B03D800FB0232012183
:102E9C00F5E701B107923B782E2B1ED17B782A2BBC
:102EAC000AD1039B02371A1D1B680392002BB8BF73
:102EBC004FF0FF33059310E0002319460593781C5F
:102ECC000A2407463A780130303A092A03D804FB21
:102EDC0001210123F5E703B105910322397822483A
:102EEC0000F0E6F940B14023CBEB000003FA00F010
:102EFC00049B013718430490397806221B487E1C2A
:102F0C008DF8281000F0D4F988B1194B33B9039B14
:102F1C00073323F007030833039314E003AB009348
:102F2C002A46144B04A94046AFF3008007E003ABDC
:102F3C0000932A460F4B04A9404600F093F8B0F1D9
:102F4C00FF3F824603D0099B5344099342E7AB8968
:102F5C005B0601D4099801E04FF0FF301DB0BDE8CD
:102F6C00F08F00BF443600084A3600084E36000881
:102F7C0000000000E92C00082DE9F04791461F469F
:102F8C000A698B6806469342B8BF1346C9F80030ED
:102F9C0091F843200C46DDF8208012B10133C9F8BA
:102FAC0000302368990642BFD9F800300233C9F8C3
:102FBC000030256815F0060510D104F1190A07E058
:102FCC000123524639463046C04701301AD00135EC
:102FDC00E368D9F800209B1A9D42F1DB94F843304A
:102FEC002268003318BF012392060FD5E118302058
:102FFC0081F843005A1C94F845102244023382F89D
:10300C00431003E04FF0FF30BDE8F08704F14302BA
:10301C0039463046C0470130F4D02268D9F8005008
:10302C00E36802F00602042A08BF5D1B2269A3684C
:10303C000CBF25EAE57500259342C4BF9B1AED1819
:10304C004FF000091A344D4509D001232246394668
:10305C003046C0470130D5D009F10109F3E7002013
:10306C00BDE8F0872DE9F04317460A7E85B06E2A3D
:10307C00984606460C460C9B01F1430E00F0AE80C0
:10308C0011D8632A22D009D8002A00F0BB80582A14
:10309C0040F0CA8081F84520834955E0642A1ED04F
:1030AC00692A1CD0C0E0732A00F0B08009D86F2ABE
:1030BC002ED0702A40F0B8800A6842F020020A60D4
:1030CC003EE0752A24D0782A3AD0ADE01A6801F196
:1030DC004205111D1960136884F84230A8E021687C
:1030EC001A6811F0800F02D0111D196008E011F060
:1030FC00400F02F10401196002D0B2F9003000E077
:10310C001368002B3CDA2D225B4284F8432037E015
:10311C0021681A6811F0800F02D0111D196007E0A8
:10312C0011F0400F02F10401196001D0138800E086
:10313C001368227E5C496F2A14BF0A2208221BE006
:10314C0078225A4984F845202268186812F0800FBA
:10315C0000F104051D6003D1550601D5038800E07C
:10316C000368D00744BF42F0200222601BB92268DA
:10317C0022F0200222601022002084F8430001E09B
:10318C0049490A226568002DA56008DB206820F0FB
:10319C00040020602BB9002D7DD175460CE0002B6E
:1031AC0079D07546B3FBF2F002FB1033CB5C05F81B
:1031BC00013D03460028F5D1082A0BD12368DA0714
:1031CC0008D5236962689A42DEBF302305F8013CBA
:1031DC0005F1FF35C5EB0E0323612EE008681A6874
:1031EC0010F0800F496903D0101D1860136808E0B7
:1031FC0010F0400F02F104001860136801D0198020
:10320C0000E0196000232361754616E01A68111D51
:10321C001960156800216268284600F049F808B169
:10322C00401B6060636804E004F1420584F84220AE
:10323C0001232361002384F84330CDF800803B4602
:10324C0003AA21463046FFF797FE013002D14FF01A
:10325C00FF3026E023692A4639463046C047013004
:10326C00F5D023689B0710D5002504F1190907E058
:10327C0001234A4639463046C0470130E7D0013574
:10328C00E368039A9B1A9D42F2DBE068039B984229
:10329C00B8BF184605E00B7804F1420584F84230BB
:1032AC008AE705B0BDE8F08355360008663600089D
:1032BC0010B5C9B202449042034605D01C780130C7
:1032CC008C42F8D1184610BD002010BD10B5431E1D
:1032DC000A44914204D011F8014B03F8014FF8E76E
:1032EC0010BD884210B501EB020301D8421E0BE061
:1032FC009842FBD28118D21AD34204D013F8014D54
:10330C0001F8014DF8E710BD994204D011F8014BBA
:10331C0002F8014FF8E710BD38B50546002944D036
:10332C0051F8043C0C1F002BB8BFE41800F0D4F883
:10333C001E4A1368114613B96360146030E0A3424F
:10334C000DD92268A018834201BF18685B68121857
:10335C00226063600C6023E0A24203D813465A68D3
:10336C00002AF9D118681918A1420BD1216801441F
:10337C0058188242196013D11068526801441960C0
:10338C005A600DE002D90C232B6009E0216860180B
:10339C00824201BF106852680918216062605C604B
:1033AC002846BDE8384000F098B838BD1801002018
:1033BC0070B5CD1C25F0030508350C2D38BF0C2538
:1033CC00002D064601DBA94202D90C23336046E0EE
:1033DC0000F082F8234B1C681A462146A1B10B68F9
:1033EC005B1B0ED40B2B03D90B60CC18CD501EE0FD
:1033FC008C420BBF63684B681360636018BF0C464C
:10340C0015E00C464968E9E7174C23681BB93046B0
:10341C0000F052F820602946304600F04DF8431C6D
:10342C0018D0C41C24F00304A0420DD125603046F2
:10343C0000F053F804F10B00231D20F00700C31A11
:10344C000ED05A42E25070BD211A304600F034F8CA
:10345C000130EBD10C233360304600F03EF80020F5
:10346C0070BD00BF1801002014010020F8B50746FC
:10347C0015460E4621B91146BDE8F840FFF798BF36
:10348C001AB9FFF749FF2846F8BD00F027F8854226
:10349C000ED929463846FFF78BFF044650B131460A
:1034AC002A46FFF713FF31463846FFF735FF01E098
:1034BC003046F8BD2046F8BD38B5064C002305460D
:1034CC0008462360FCF756FF431C02D1236803B166
:1034DC002B6038BD1C0100207047704751F8040C5C
:1034EC000028BEBF091851F8043CC01804387047B6
:1034FC00537461636B206672616D653A0A0000005B
:10350C00205230203D2020253038580A0000000081
:10351C00205231203D2020253038580A0000000070
:10352C00205232203D2020253038580A000000005F
:10353C00205233203D2020253038580A000000004E
:10354C0020523132203D20253038580A000000002E
:10355C00204C52203D2020253038580A0000000015
:10356C00205043203D2020253038580A0000000010
:10357C0020505352203D20253038580A00000000BE
:10358C004653522F4641523A0A00000020434653FC
:10359C0052203D2020253038580A00002048465340
:1035AC0052203D2020253038580A00002044465334
:1035BC0052203D2020253038580A00002041465327
:1035CC0052203D2020253038580A0000204D4D4611
:1035DC004152203D20253038580A000020424641F7
:1035EC0052203D2020253038580A00004D69736365
:1035FC000A000000204C522F4558435F5245545549
:10360C00524E3D20253038580A0000005B4861724C
:10361C00644661756C745D0A000000005B42757352
:10362C004661756C745D0A005B5573616765466134
:10363C00756C745D0A000000232D302B2000686C23
:10364C004C006566674546470030313233343536B9
:10365C0037383941424344454600303132333435F2
:0B366C00363738396162636465660020
:10367800785634129000002000000000000000007E
:1036880000000000010203040607080900A24A041A
:103698000000000000000000000000000000000022
:1036A8000000000000000000000000000000000012
:1036B8000000000000000000000000000000000002
:1036C80000000000000000000000000000000000F2
:1036D80000000000000000000000000000000000E2
:1036E80000000000000000000000000000000000D2
:0836F8002000002032547698F6
:040000050800010DE1
:00000001FF
