:020000040800F2
:1000000000500020CD010008D1010008D3010008F4
:10001000E9010008EB0100080102000800000000EF
:1000200000000000000000000000000017020008AF
:1000300019020008000000001B0200081D02000851
:1000400031020008310200083102000831020008C4
:1000500031020008310200083102000831020008B4
:1000600031020008310200083102000831020008A4
:100070003102000831020008310200083102000894
:100080003102000831020008310200083102000884
:100090003102000831020008310200083102000874
:1000A0003102000831020008310200083102000864
:1000B0003102000831020008310200083102000854
:1000C0003102000831020008310200083102000844
:1000D0003102000831020008310200083102000834
:1000E000310200083102000831020008000000005F
:1000F0000000000000000000000000000000000000
:1001000000000000000000005FF808F107B500F0F3
:10011000B1F8234A234B24498B4204D252F8040FEE
:1001200043F8040BF8E7214B214A0021934202D205
:1001300043F8041BFAE700F0A9F801A9684600F0AB
:1001400091F81C4B1C4C1E46E41AA4100025AC422E
:1001500004DD56F8253098470135F8E7174B184C61
:100160001E46E41AA4100025AC4204DD56F82530E2
:1001700098470135F8E79DE8030000F06FF9114B4F
:1001800006461D46104CE41AA410002C04DD013C68
:1001900055F824309847F8E7304600F05FF800BF84
:1001A0006C040008000000201C0000201C0000203F
:1001B000200000205C0200085C0200085C020008CD
:1001C0005C0200085C0200085C020008144800475A
:1001D000FEE71EF0040F0CBFEFF30880EFF3098079
:1001E0007146104A1047FEE7FEE71EF0040F0CBFF1
:1001F000EFF30880EFF3098071460B4A1047FEE7E2
:100200001EF0040F0CBFEFF30880EFF30980714676
:10021000064A1047FEE7FEE7FEE7FEE770470000EC
:100220000D010008E7010008FF01000815020008A1
:02023000FEE7E7
:1002340070040008000000201C0000207004000866
:1002440000000000000000001C000020200000202E
:080254000000000000000000A2
:10025C0008B500F017F8000001230360014B0B6098
:10026C00704700BF0000002008B500F01DF8024BDD
:10027C00024A9A6008BD00BF00ED00E000000008D3
:10028C0000F08CB8BFF34F8F0549064BCA6802F4D7
:10029C00E0621343CB60BFF34F8F00BFFDE700BF9D
:1002AC0000ED00E00400FA05384B82B01A6842F009
:1002BC0001021A605968364A0A405A601A6822F0DC
:1002CC00847222F480321A601A6822F480221A6036
:1002DC005A6822F4FE025A604FF41F029A60002200
:1002EC00009201921A6842F480321A601A6802F481
:1002FC0000320192009A01320092019A1AB9009AC6
:10030C00B2F5A06FF2D11A6812F4003218BF0122B4
:10031C000192019A012A05D01E4B4FF000629A609F
:10032C0002B070471C4A116841F01001116011684D
:10033C0021F003011160116841F0020111605A684B
:10034C005A605A685A605A6842F480625A605A6815
:10035C0022F47C125A605A6842F4E8125A601A6805
:10036C0042F080721A601968084A8901FBD55168FD
:10037C0021F003015160516841F0020151605A684B
:10038C0002F00C02082AFAD1C6E700BF00100240A6
:10039C000000FFF800ED00E000200240114A124B73
:1003AC00516801F00C01042901D0082901D00F4932
:1003BC000EE051685068C1F38341C00301F10201A2
:1003CC0002D55068800301D5094800E00748414335
:1003DC00196052680749C2F30312895C1A68CA4053
:1003EC001A607047001002401800002000127A00BA
:1003FC0000093D0008000020044A136843F0010383
:10040C0013609B0700D4FEE7704700BF001002404A
:10041C0010B1022805D07047054A136843F0020357
:10042C0003E0034A136843F001031360704700BFF5
:10043C0004100240012801D1FFF7DEBF28B9034B9D
:10044C001B68C3F34003002BFDD170470010024022
:10045C0008B50120FFF7EEFFBDE808400120FFF7CB
:02046C00D7BFF8
:100470001C00002000000000000000000000000040
:0C048000010203040607080900A24A0458
:040000050800010DE1
:00000001FF
